{
  "contractName": "CertificateRegistry",
  "abi": [
    {
      "anonymous": false,
      "inputs": [
        {
          "indexed": true,
          "internalType": "address",
          "name": "issuer",
          "type": "address"
        },
        {
          "indexed": false,
          "internalType": "uint256",
          "name": "timeOfIssue",
          "type": "uint256"
        },
        {
          "indexed": false,
          "internalType": "bool",
          "name": "isStored",
          "type": "bool"
        }
      ],
      "name": "LogNewHashStored",
      "type": "event"
    },
    {
      "anonymous": false,
      "inputs": [
        {
          "indexed": true,
          "internalType": "address",
          "name": "oldOwner",
          "type": "address"
        },
        {
          "indexed": true,
          "internalType": "address",
          "name": "newOwner",
          "type": "address"
        }
      ],
      "name": "OwnerSet",
      "type": "event"
    },
    {
      "anonymous": false,
      "inputs": [
        {
          "indexed": true,
          "internalType": "address",
          "name": "previousOwner",
          "type": "address"
        },
        {
          "indexed": true,
          "internalType": "address",
          "name": "newOwner",
          "type": "address"
        }
      ],
      "name": "OwnershipTransferred",
      "type": "event"
    },
    {
      "constant": true,
      "inputs": [],
      "name": "contractOwner",
      "outputs": [
        {
          "internalType": "address",
          "name": "",
          "type": "address"
        }
      ],
      "payable": false,
      "stateMutability": "view",
      "type": "function"
    },
    {
      "constant": true,
      "inputs": [
        {
          "internalType": "bytes32",
          "name": "",
          "type": "bytes32"
        }
      ],
      "name": "documentRegistry",
      "outputs": [
        {
          "internalType": "address",
          "name": "issuer",
          "type": "address"
        },
        {
          "internalType": "uint256",
          "name": "timeOfIssue",
          "type": "uint256"
        },
        {
          "internalType": "bool",
          "name": "isStored",
          "type": "bool"
        }
      ],
      "payable": false,
      "stateMutability": "view",
      "type": "function"
    },
    {
      "constant": true,
      "inputs": [],
      "name": "isOwner",
      "outputs": [
        {
          "internalType": "bool",
          "name": "",
          "type": "bool"
        }
      ],
      "payable": false,
      "stateMutability": "view",
      "type": "function"
    },
    {
      "constant": true,
      "inputs": [],
      "name": "student",
      "outputs": [
        {
          "internalType": "address",
          "name": "",
          "type": "address"
        }
      ],
      "payable": false,
      "stateMutability": "view",
      "type": "function"
    },
    {
      "constant": true,
      "inputs": [],
      "name": "verifier",
      "outputs": [
        {
          "internalType": "address",
          "name": "",
          "type": "address"
        }
      ],
      "payable": false,
      "stateMutability": "view",
      "type": "function"
    },
    {
      "constant": false,
      "inputs": [
        {
          "internalType": "bytes32",
          "name": "_documentHash",
          "type": "bytes32"
        }
      ],
      "name": "storeHash",
      "outputs": [],
      "payable": false,
      "stateMutability": "nonpayable",
      "type": "function"
    },
    {
      "constant": true,
      "inputs": [
        {
          "internalType": "bytes32",
          "name": "_documenteHash",
          "type": "bytes32"
        }
      ],
      "name": "verifyHash",
      "outputs": [
        {
          "internalType": "bool",
          "name": "",
          "type": "bool"
        }
      ],
      "payable": false,
      "stateMutability": "view",
      "type": "function"
    }
  ],
  "bytecode": "0x6080604052336000806101000a81548173ffffffffffffffffffffffffffffffffffffffff021916908373ffffffffffffffffffffffffffffffffffffffff1602179055506000809054906101000a900473ffffffffffffffffffffffffffffffffffffffff1673ffffffffffffffffffffffffffffffffffffffff16600073ffffffffffffffffffffffffffffffffffffffff167f342827c97908e5e2f71151c08502a66d44b6f758e3ac2f1de95f02eb95f0a73560405160405180910390a36107cb806100cf6000396000f3fe608060405234801561001057600080fd5b506004361061007d5760003560e01c80638f32d59b1161005b5780638f32d59b14610144578063a437a40d14610166578063ce606ee0146101e6578063ef020f4a146102305761007d565b80632b7ac3f314610082578063699450e8146100cc5780637fe8888514610116575b600080fd5b61008a610276565b604051808273ffffffffffffffffffffffffffffffffffffffff1673ffffffffffffffffffffffffffffffffffffffff16815260200191505060405180910390f35b6100d461029c565b604051808273ffffffffffffffffffffffffffffffffffffffff1673ffffffffffffffffffffffffffffffffffffffff16815260200191505060405180910390f35b6101426004803603602081101561012c57600080fd5b81019080803590602001909291905050506102c2565b005b61014c6105a7565b604051808215151515815260200191505060405180910390f35b6101926004803603602081101561017c57600080fd5b81019080803590602001909291905050506105fe565b604051808473ffffffffffffffffffffffffffffffffffffffff1673ffffffffffffffffffffffffffffffffffffffff16815260200183815260200182151515158152602001935050505060405180910390f35b6101ee610655565b604051808273ffffffffffffffffffffffffffffffffffffffff1673ffffffffffffffffffffffffffffffffffffffff16815260200191505060405180910390f35b61025c6004803603602081101561024657600080fd5b810190808035906020019092919050505061067a565b604051808215151515815260200191505060405180910390f35b600260009054906101000a900473ffffffffffffffffffffffffffffffffffffffff1681565b600160009054906101000a900473ffffffffffffffffffffffffffffffffffffffff1681565b6102ca6105a7565b61033c576040517f08c379a000000000000000000000000000000000000000000000000000000000815260040180806020018281038252600d8152602001807f4163636573732044656e6965640000000000000000000000000000000000000081525060200191505060405180910390fd5b806000602060ff161161039a576040517f08c379a000000000000000000000000000000000000000000000000000000000815260040180806020018281038252602c81526020018061070d602c913960400191505060405180910390fd5b816103a48161069f565b156103fa576040517f08c379a000000000000000000000000000000000000000000000000000000000815260040180806020018281038252603a815260200180610739603a913960400191505060405180910390fd5b600073ffffffffffffffffffffffffffffffffffffffff163373ffffffffffffffffffffffffffffffffffffffff161415610480576040517f08c379a00000000000000000000000000000000000000000000000000000000081526004018080602001828103825260248152602001806107736024913960400191505060405180910390fd5b6104886106d3565b60405180606001604052803373ffffffffffffffffffffffffffffffffffffffff168152602001428152602001600115158152509050806003600086815260200190815260200160002060008201518160000160006101000a81548173ffffffffffffffffffffffffffffffffffffffff021916908373ffffffffffffffffffffffffffffffffffffffff1602179055506020820151816001015560408201518160020160006101000a81548160ff0219169083151502179055509050503373ffffffffffffffffffffffffffffffffffffffff167f77ce6f493ec8c515e47fd7a83a30370b8e5a973878bcd02456bbe359358de0cc42600160405180838152602001821515151581526020019250505060405180910390a250505050565b60008060009054906101000a900473ffffffffffffffffffffffffffffffffffffffff1673ffffffffffffffffffffffffffffffffffffffff163373ffffffffffffffffffffffffffffffffffffffff1614905090565b60036020528060005260406000206000915090508060000160009054906101000a900473ffffffffffffffffffffffffffffffffffffffff16908060010154908060020160009054906101000a900460ff16905083565b6000809054906101000a900473ffffffffffffffffffffffffffffffffffffffff1681565b6000806106868361069f565b9050801561069857600191505061069a565b505b919050565b6000600115156003600084815260200190815260200160002060020160009054906101000a900460ff161515149050919050565b6040518060600160405280600073ffffffffffffffffffffffffffffffffffffffff16815260200160008152602001600015158152509056fe4572726f723a204572726f723a20686173682076616c75652073686f756c64206e6f7420626520656d7074794572726f723a204f6e6c792068617368657320746861742068617665206e6f74206265656e206861736865642063616e2062652073746f7265644572726f723a20656e73757265206564756361746f722061646472657373206578697374a265627a7a7231582098bb6b3776e2b294c3eded6a8eda6c440d0b8b8302654d7c9981ab6bf1aff22664736f6c63430005100032",
  "source": "// SPDX-License-Identifier: Apache-2.0\n\npragma solidity >=0.4.22 <0.8.0;\n\nimport \"./zeppelin/ownership/Ownable.sol\";\n\ncontract CertificateRegistry is Ownable {\n    /**\n     * The Certificate Document info structure: every certificate info is composed of:\n     * - documentHash: Hash of the document generated off-chain\n     * - from: account of the institution that issue the document\n    * - isStored - a flag to show that a hash is stored or not.\n\n     */\n    struct DocumentInfo {\n        address issuer;\n        uint256 timeOfIssue;\n        bool isStored;\n    }\n\n    /*\n      A mapping of the document hash to the documentinfo that was issued\n      This mapping is used to keep track of every certification document initiated for every student by an educator.\n     */\n    mapping(bytes32 => DocumentInfo) public documentRegistry;\n\n    // event for EVM logging\n    event LogNewHashStored(\n        address indexed issuer,\n        uint256 timeOfIssue,\n        bool isStored\n    );\n\n    modifier onlyNotHashed(bytes32 _documentHash) {\n        require(\n            !isHashStored(_documentHash),\n            \"Error: Only hashes that have not been hashed can be stored\"\n        );\n        _;\n    }\n\n    modifier onlyHashValueNotEmpty(bytes32 _documentHash) {\n        require(\n            _documentHash.length > 0,\n            \"Error: Error: hash value should not be empty\"\n        );\n        _;\n    }\n\n    /*\n     * Record a new hash request on behalf of a student\n     * The sender of message call is the educator itself\n     * @param {string} _documentHash: Hash of the sutuednt submitted for storage on-chain\n     */\n    function storeHash(bytes32 _documentHash)\n        public\n        onlyOwner\n        onlyHashValueNotEmpty(_documentHash)\n        onlyNotHashed(_documentHash)\n    {\n        require(\n            msg.sender != address(0x0),\n            \"Error: ensure educator address exist\"\n        );\n        DocumentInfo memory docInfo = DocumentInfo({\n            issuer: msg.sender,\n            timeOfIssue: block.timestamp,\n            isStored: true\n        });\n\n        documentRegistry[_documentHash] = docInfo;\n\n        // creates the event, to be used to query all the store hash of the certificates\n        emit LogNewHashStored(msg.sender, block.timestamp, true);\n    }\n\n    function verifyHash(bytes32 _documenteHash) public view returns (bool) {\n        bool valid = isHashStored(_documenteHash);\n        if (valid) {\n            return true;\n        }\n    }\n\n    function isHashStored(bytes32 _documentHash) internal view returns (bool) {\n        return documentRegistry[_documentHash].isStored == true;\n    }\n}\n",
  "sourcePath": "/home/engrsunday/workspace/E-Cert-Dapp/contracts/CertificateRegistry.sol",
  "compiler": {
    "name": "solc",
    "version": "0.5.16+commit.9c3226ce.Emscripten.clang"
  },
  "schemaVersion": "3.3.1",
  "updatedAt": "2020-12-11T19:23:07.762Z",
  "networkType": "ethereum",
  "devdoc": {
    "methods": {}
  },
  "userdoc": {
    "methods": {}
  }
}