{
  "contractName": "CertificateRegistry",
  "abi": [
    {
      "anonymous": false,
      "inputs": [
        {
          "indexed": true,
          "internalType": "address",
          "name": "issuer",
          "type": "address"
        },
        {
          "indexed": false,
          "internalType": "string",
          "name": "documentHash",
          "type": "string"
        },
        {
          "indexed": false,
          "internalType": "uint256",
          "name": "timeOfIssue",
          "type": "uint256"
        },
        {
          "indexed": false,
          "internalType": "bool",
          "name": "isStored",
          "type": "bool"
        }
      ],
      "name": "LogNewHashStored",
      "type": "event"
    },
    {
      "anonymous": false,
      "inputs": [
        {
          "indexed": true,
          "internalType": "address",
          "name": "oldOwner",
          "type": "address"
        },
        {
          "indexed": true,
          "internalType": "address",
          "name": "newOwner",
          "type": "address"
        }
      ],
      "name": "OwnerSet",
      "type": "event"
    },
    {
      "anonymous": false,
      "inputs": [
        {
          "indexed": true,
          "internalType": "address",
          "name": "previousOwner",
          "type": "address"
        },
        {
          "indexed": true,
          "internalType": "address",
          "name": "newOwner",
          "type": "address"
        }
      ],
      "name": "OwnershipTransferred",
      "type": "event"
    },
    {
      "constant": true,
      "inputs": [],
      "name": "contractOwner",
      "outputs": [
        {
          "internalType": "address",
          "name": "",
          "type": "address"
        }
      ],
      "payable": false,
      "stateMutability": "view",
      "type": "function"
    },
    {
      "constant": true,
      "inputs": [
        {
          "internalType": "string",
          "name": "",
          "type": "string"
        }
      ],
      "name": "documentRegistry",
      "outputs": [
        {
          "internalType": "address",
          "name": "issuer",
          "type": "address"
        },
        {
          "internalType": "string",
          "name": "documentHash",
          "type": "string"
        },
        {
          "internalType": "uint256",
          "name": "timeOfIssue",
          "type": "uint256"
        },
        {
          "internalType": "bool",
          "name": "isStored",
          "type": "bool"
        }
      ],
      "payable": false,
      "stateMutability": "view",
      "type": "function"
    },
    {
      "constant": true,
      "inputs": [],
      "name": "isOwner",
      "outputs": [
        {
          "internalType": "bool",
          "name": "",
          "type": "bool"
        }
      ],
      "payable": false,
      "stateMutability": "view",
      "type": "function"
    },
    {
      "constant": true,
      "inputs": [],
      "name": "isStudent",
      "outputs": [
        {
          "internalType": "bool",
          "name": "",
          "type": "bool"
        }
      ],
      "payable": false,
      "stateMutability": "view",
      "type": "function"
    },
    {
      "constant": true,
      "inputs": [],
      "name": "isVerifier",
      "outputs": [
        {
          "internalType": "bool",
          "name": "",
          "type": "bool"
        }
      ],
      "payable": false,
      "stateMutability": "view",
      "type": "function"
    },
    {
      "constant": true,
      "inputs": [],
      "name": "student",
      "outputs": [
        {
          "internalType": "address",
          "name": "",
          "type": "address"
        }
      ],
      "payable": false,
      "stateMutability": "view",
      "type": "function"
    },
    {
      "constant": false,
      "inputs": [
        {
          "internalType": "address",
          "name": "newOwner",
          "type": "address"
        }
      ],
      "name": "transferOwnership",
      "outputs": [],
      "payable": false,
      "stateMutability": "nonpayable",
      "type": "function"
    },
    {
      "constant": true,
      "inputs": [],
      "name": "value",
      "outputs": [
        {
          "internalType": "uint256",
          "name": "",
          "type": "uint256"
        }
      ],
      "payable": false,
      "stateMutability": "view",
      "type": "function"
    },
    {
      "constant": true,
      "inputs": [],
      "name": "verifier",
      "outputs": [
        {
          "internalType": "address",
          "name": "",
          "type": "address"
        }
      ],
      "payable": false,
      "stateMutability": "view",
      "type": "function"
    },
    {
      "constant": false,
      "inputs": [
        {
          "internalType": "string",
          "name": "_documentHash",
          "type": "string"
        }
      ],
      "name": "storeHash",
      "outputs": [],
      "payable": false,
      "stateMutability": "nonpayable",
      "type": "function"
    },
    {
      "constant": true,
      "inputs": [
        {
          "internalType": "string",
          "name": "_documenteHash",
          "type": "string"
        }
      ],
      "name": "verifyCertificate",
      "outputs": [
        {
          "internalType": "bool",
          "name": "",
          "type": "bool"
        }
      ],
      "payable": false,
      "stateMutability": "view",
      "type": "function"
    },
    {
      "constant": true,
      "inputs": [
        {
          "internalType": "string",
          "name": "_hash",
          "type": "string"
        }
      ],
      "name": "getCertificateInfo",
      "outputs": [
        {
          "internalType": "string",
          "name": "",
          "type": "string"
        },
        {
          "internalType": "address",
          "name": "",
          "type": "address"
        },
        {
          "internalType": "uint256",
          "name": "",
          "type": "uint256"
        },
        {
          "internalType": "bool",
          "name": "",
          "type": "bool"
        }
      ],
      "payable": false,
      "stateMutability": "view",
      "type": "function"
    }
  ],
  "bytecode": "0x6080604052336000806101000a81548173ffffffffffffffffffffffffffffffffffffffff021916908373ffffffffffffffffffffffffffffffffffffffff1602179055506000809054906101000a900473ffffffffffffffffffffffffffffffffffffffff1673ffffffffffffffffffffffffffffffffffffffff16600073ffffffffffffffffffffffffffffffffffffffff167f342827c97908e5e2f71151c08502a66d44b6f758e3ac2f1de95f02eb95f0a73560405160405180910390a36114f0806100cf6000396000f3fe608060405234801561001057600080fd5b50600436106100b45760003560e01c80637efc818c116100715780637efc818c146103c15780638b23d875146103e35780638f32d59b146104b657806392900953146104d8578063ce606ee014610651578063f2fde38b1461069b576100b4565b80632b7ac3f3146100b95780633fa4f24514610103578063507dce191461012157806351e0a6eb1461029a578063699450e8146102bc57806371dc61cb14610306575b600080fd5b6100c16106df565b604051808273ffffffffffffffffffffffffffffffffffffffff1673ffffffffffffffffffffffffffffffffffffffff16815260200191505060405180910390f35b61010b610705565b6040518082815260200191505060405180910390f35b6101da6004803603602081101561013757600080fd5b810190808035906020019064010000000081111561015457600080fd5b82018360208201111561016657600080fd5b8035906020019184600183028401116401000000008311171561018857600080fd5b91908080601f016020809104026020016040519081016040528093929190818152602001838380828437600081840152601f19601f82011690508083019250505050505050919291929050505061070b565b60405180806020018573ffffffffffffffffffffffffffffffffffffffff1673ffffffffffffffffffffffffffffffffffffffff16815260200184815260200183151515158152602001828103825286818151815260200191508051906020019080838360005b8381101561025c578082015181840152602081019050610241565b50505050905090810190601f1680156102895780820380516001836020036101000a031916815260200191505b509550505050505060405180910390f35b6102a26109f9565b604051808215151515815260200191505060405180910390f35b6102c4610a51565b604051808273ffffffffffffffffffffffffffffffffffffffff1673ffffffffffffffffffffffffffffffffffffffff16815260200191505060405180910390f35b6103bf6004803603602081101561031c57600080fd5b810190808035906020019064010000000081111561033957600080fd5b82018360208201111561034b57600080fd5b8035906020019184600183028401116401000000008311171561036d57600080fd5b91908080601f016020809104026020016040519081016040528093929190818152602001838380828437600081840152601f19601f820116905080830192505050505050509192919290505050610a77565b005b6103c9610e3f565b604051808215151515815260200191505060405180910390f35b61049c600480360360208110156103f957600080fd5b810190808035906020019064010000000081111561041657600080fd5b82018360208201111561042857600080fd5b8035906020019184600183028401116401000000008311171561044a57600080fd5b91908080601f016020809104026020016040519081016040528093929190818152602001838380828437600081840152601f19601f820116905080830192505050505050509192919290505050610e97565b604051808215151515815260200191505060405180910390f35b6104be610f89565b604051808215151515815260200191505060405180910390f35b610591600480360360208110156104ee57600080fd5b810190808035906020019064010000000081111561050b57600080fd5b82018360208201111561051d57600080fd5b8035906020019184600183028401116401000000008311171561053f57600080fd5b91908080601f016020809104026020016040519081016040528093929190818152602001838380828437600081840152601f19601f820116905080830192505050505050509192919290505050610fe0565b604051808573ffffffffffffffffffffffffffffffffffffffff1673ffffffffffffffffffffffffffffffffffffffff1681526020018060200184815260200183151515158152602001828103825285818151815260200191508051906020019080838360005b838110156106135780820151818401526020810190506105f8565b50505050905090810190601f1680156106405780820380516001836020036101000a031916815260200191505b509550505050505060405180910390f35b6106596110eb565b604051808273ffffffffffffffffffffffffffffffffffffffff1673ffffffffffffffffffffffffffffffffffffffff16815260200191505060405180910390f35b6106dd600480360360208110156106b157600080fd5b81019080803573ffffffffffffffffffffffffffffffffffffffff169060200190929190505050611110565b005b600260009054906101000a900473ffffffffffffffffffffffffffffffffffffffff1681565b60035481565b6060600080600084600081511161076d576040517f08c379a000000000000000000000000000000000000000000000000000000000815260040180806020018281038252602c815260200180611432602c913960400191505060405180910390fd5b6004866040518082805190602001908083835b602083106107a35780518252602082019150602081019050602083039250610780565b6001836020036101000a03801982511681845116808217855250505050505090500191505090815260200160405180910390206001016004876040518082805190602001908083835b6020831061080f57805182526020820191506020810190506020830392506107ec565b6001836020036101000a038019825116818451168082178552505050505050905001915050908152602001604051809103902060000160009054906101000a900473ffffffffffffffffffffffffffffffffffffffff166004886040518082805190602001908083835b6020831061089c5780518252602082019150602081019050602083039250610879565b6001836020036101000a0380198251168184511680821785525050505050509050019150509081526020016040518091039020600201546004896040518082805190602001908083835b6020831061090957805182526020820191506020810190506020830392506108e6565b6001836020036101000a038019825116818451168082178552505050505050905001915050908152602001604051809103902060030160009054906101000a900460ff16838054600181600116156101000203166002900480601f0160208091040260200160405190810160405280929190818152602001828054600181600116156101000203166002900480156109e25780601f106109b7576101008083540402835291602001916109e2565b820191906000526020600020905b8154815290600101906020018083116109c557829003601f168201915b505050505093509450945094509450509193509193565b6000600160009054906101000a900473ffffffffffffffffffffffffffffffffffffffff1673ffffffffffffffffffffffffffffffffffffffff163373ffffffffffffffffffffffffffffffffffffffff1614905090565b600160009054906101000a900473ffffffffffffffffffffffffffffffffffffffff1681565b610a7f610f89565b610af1576040517f08c379a000000000000000000000000000000000000000000000000000000000815260040180806020018281038252600d8152602001807f4163636573732044656e6965640000000000000000000000000000000000000081525060200191505060405180910390fd5b806000815111610b4c576040517f08c379a000000000000000000000000000000000000000000000000000000000815260040180806020018281038252602c815260200180611432602c913960400191505060405180910390fd5b81610b5681611282565b15610bac576040517f08c379a000000000000000000000000000000000000000000000000000000000815260040180806020018281038252603a81526020018061145e603a913960400191505060405180910390fd5b600073ffffffffffffffffffffffffffffffffffffffff163373ffffffffffffffffffffffffffffffffffffffff161415610c32576040517f08c379a00000000000000000000000000000000000000000000000000000000081526004018080602001828103825260248152602001806114986024913960400191505060405180910390fd5b610c3a61134c565b60405180608001604052803373ffffffffffffffffffffffffffffffffffffffff168152602001858152602001428152602001600115158152509050806004856040518082805190602001908083835b60208310610cad5780518252602082019150602081019050602083039250610c8a565b6001836020036101000a038019825116818451168082178552505050505050905001915050908152602001604051809103902060008201518160000160006101000a81548173ffffffffffffffffffffffffffffffffffffffff021916908373ffffffffffffffffffffffffffffffffffffffff1602179055506020820151816001019080519060200190610d4392919061138c565b506040820151816002015560608201518160030160006101000a81548160ff0219169083151502179055509050503373ffffffffffffffffffffffffffffffffffffffff167f6b85cf5e437037065cbb853ec169f7203fef06c8634088ea8b42cdf388bb42a785436001604051808060200184815260200183151515158152602001828103825285818151815260200191508051906020019080838360005b83811015610dfd578082015181840152602081019050610de2565b50505050905090810190601f168015610e2a5780820380516001836020036101000a031916815260200191505b5094505050505060405180910390a250505050565b6000600260009054906101000a900473ffffffffffffffffffffffffffffffffffffffff1673ffffffffffffffffffffffffffffffffffffffff163373ffffffffffffffffffffffffffffffffffffffff1614905090565b6000816000815111610ef4576040517f08c379a000000000000000000000000000000000000000000000000000000000815260040180806020018281038252602c815260200180611432602c913960400191505060405180910390fd5b6000610f6b6004856040518082805190602001908083835b60208310610f2f5780518252602082019150602081019050602083039250610f0c565b6001836020036101000a03801982511681845116808217855250505050505090500191505090815260200160405180910390206001018561130c565b90508015610f7d576001925050610f83565b60009250505b50919050565b60008060009054906101000a900473ffffffffffffffffffffffffffffffffffffffff1673ffffffffffffffffffffffffffffffffffffffff163373ffffffffffffffffffffffffffffffffffffffff1614905090565b6004818051602081018201805184825260208301602085012081835280955050505050506000915090508060000160009054906101000a900473ffffffffffffffffffffffffffffffffffffffff1690806001018054600181600116156101000203166002900480601f0160208091040260200160405190810160405280929190818152602001828054600181600116156101000203166002900480156110c85780601f1061109d576101008083540402835291602001916110c8565b820191906000526020600020905b8154815290600101906020018083116110ab57829003601f168201915b5050505050908060020154908060030160009054906101000a900460ff16905084565b6000809054906101000a900473ffffffffffffffffffffffffffffffffffffffff1681565b611118610f89565b61118a576040517f08c379a000000000000000000000000000000000000000000000000000000000815260040180806020018281038252600d8152602001807f4163636573732044656e6965640000000000000000000000000000000000000081525060200191505060405180910390fd5b600073ffffffffffffffffffffffffffffffffffffffff168173ffffffffffffffffffffffffffffffffffffffff1614156111c457600080fd5b8073ffffffffffffffffffffffffffffffffffffffff166000809054906101000a900473ffffffffffffffffffffffffffffffffffffffff1673ffffffffffffffffffffffffffffffffffffffff167f8be0079c531659141344cd1fd0a4f28419497f9722a3daafe3b4186f6b6457e060405160405180910390a3806000806101000a81548173ffffffffffffffffffffffffffffffffffffffff021916908373ffffffffffffffffffffffffffffffffffffffff16021790555050565b6000600115156004836040518082805190602001908083835b602083106112be578051825260208201915060208101905060208303925061129b565b6001836020036101000a038019825116818451168082178552505050505050905001915050908152602001604051809103902060030160009054906101000a900460ff161515149050919050565b60008083905060608390508051828054600181600116156101000203166002900490501461133f57600092505050611346565b6001925050505b92915050565b6040518060800160405280600073ffffffffffffffffffffffffffffffffffffffff16815260200160608152602001600081526020016000151581525090565b828054600181600116156101000203166002900490600052602060002090601f016020900481019282601f106113cd57805160ff19168380011785556113fb565b828001600101855582156113fb579182015b828111156113fa5782518255916020019190600101906113df565b5b509050611408919061140c565b5090565b61142e91905b8082111561142a576000816000905550600101611412565b5090565b9056fe4572726f723a204572726f723a20686173682076616c75652073686f756c64206e6f7420626520656d7074794572726f723a204f6e6c792068617368657320746861742068617665206e6f74206265656e206861736865642063616e2062652073746f7265644572726f723a20656e73757265206564756361746f722061646472657373206578697374a265627a7a72315820df06b2cd246ed7ee61f8112d66ca3e041fb7b582be8fa2439e0a4cf01192b8e164736f6c63430005100032",
  "source": "// SPDX-License-Identifier: Apache-2.0\n\npragma solidity >=0.4.22 <0.8.0;\n\nimport \"./zeppelin/ownership/Ownable.sol\";\n\ncontract CertificateRegistry is Ownable {\n    /**\n     * The Certificate Document info structure: every certificate info is composed of:\n     * - documentHash: Hash of the document generated off-chain\n     * - issuer: account of the institution that issue the document\n     * - timeOfIssue - time the document hash was stored.\n    * - isStored - a flag to show that a hash is stored or not.\n\n     */\n    struct DocumentInfo {\n        address issuer;\n        string documentHash;\n        uint256 timeOfIssue;\n        bool isStored;\n    }\n\n    /*\n      A mapping of the document hash to the documentinfo that was issued\n      This mapping is used to keep track of every certification document initiated for every student by an educator.\n     */\n    mapping(string => DocumentInfo) public documentRegistry;\n\n    // event for EVM logging\n    event LogNewHashStored(\n        address indexed issuer,\n        string documentHash,\n        uint256 timeOfIssue,\n        bool isStored\n    );\n\n    modifier onlyNotHashed(string memory _documentHash) {\n        require(\n            !isHashStored(_documentHash),\n            \"Error: Only hashes that have not been hashed can be stored\"\n        );\n        _;\n    }\n\n    modifier onlyHashValueNotEmpty(string memory _documentHash) {\n        require(\n            bytes(_documentHash).length > 0,\n            \"Error: Error: hash value should not be empty\"\n        );\n        _;\n    }\n\n    /*\n     * Record a new hash request on behalf of a student\n     * The sender of message call is the educator itself\n     * @param {string} _documentHash: Hash of the sutuednt submitted for storage on-chain\n     */\n    function storeHash(string memory _documentHash)\n        public\n        onlyOwner\n        onlyHashValueNotEmpty(_documentHash)\n        onlyNotHashed(_documentHash)\n    {\n        require(\n            msg.sender != address(0x0),\n            \"Error: ensure educator address exist\"\n        );\n        DocumentInfo memory docInfo = DocumentInfo({\n            documentHash: _documentHash,\n            issuer: msg.sender,\n            timeOfIssue: block.timestamp,\n            isStored: true\n        });\n\n        documentRegistry[_documentHash] = docInfo;\n\n        // creates the event, to be used to query all the store hash of the certificates\n        emit LogNewHashStored(msg.sender, _documentHash, block.number, true);\n    }\n\n    function verifyCertificate(string memory _documenteHash)\n        public\n        view\n        onlyHashValueNotEmpty(_documenteHash)\n        returns (bool)\n    {\n        bool test = stringsEqual(\n            documentRegistry[_documenteHash].documentHash,\n            _documenteHash\n        );\n        if (test) {\n            return true;\n        }\n        return false;\n    }\n\n    function getCertificateInfo(string memory _hash)\n        public\n        view\n        onlyHashValueNotEmpty(_hash)\n        returns (\n            string memory,\n            address,\n            uint256,\n            bool\n        )\n    {\n        return (\n            documentRegistry[_hash].documentHash,\n            documentRegistry[_hash].issuer,\n            documentRegistry[_hash].timeOfIssue,\n            documentRegistry[_hash].isStored\n        );\n    }\n\n    function isHashStored(string memory _documentHash)\n        internal\n        view\n        returns (bool)\n    {\n        return documentRegistry[_documentHash].isStored == true;\n    }\n\n    function stringsEqual(string storage _a, string memory _b)\n        internal\n        view\n        returns (bool)\n    {\n        bytes storage a = bytes(_a);\n        bytes memory b = bytes(_b);\n        if (a.length != b.length) {\n            return false;\n        }\n        return true;\n    }\n\n    // Note, swithc string to bytes32 to reduce gas cost if the file is hashed with institutionHash = keccak256(abi.encodePacked(block.number, now, msg.data));\n}\n",
  "sourcePath": "/home/engrsunday/workspace/E-Cert-Dapp/contracts/CertificateRegistry.sol",
  "compiler": {
    "name": "solc",
    "version": "0.5.16+commit.9c3226ce.Emscripten.clang"
  },
  "schemaVersion": "3.3.1",
  "updatedAt": "2020-12-06T13:15:22.818Z",
  "networkType": "ethereum",
  "devdoc": {
    "methods": {}
  },
  "userdoc": {
    "methods": {}
  }
}