{
  "contractName": "CertificateRegistry",
  "abi": [
    {
      "anonymous": false,
      "inputs": [
        {
          "indexed": true,
          "internalType": "address",
          "name": "issuer",
          "type": "address"
        },
        {
          "indexed": false,
          "internalType": "bytes32",
          "name": "documentHash",
          "type": "bytes32"
        },
        {
          "indexed": false,
          "internalType": "uint256",
          "name": "_timeOfIssue",
          "type": "uint256"
        },
        {
          "indexed": false,
          "internalType": "bool",
          "name": "isStored",
          "type": "bool"
        }
      ],
      "name": "HashAdded",
      "type": "event"
    },
    {
      "anonymous": false,
      "inputs": [
        {
          "indexed": true,
          "internalType": "address",
          "name": "previousOwner",
          "type": "address"
        },
        {
          "indexed": true,
          "internalType": "address",
          "name": "newOwner",
          "type": "address"
        }
      ],
      "name": "OwnershipTransferred",
      "type": "event"
    },
    {
      "constant": true,
      "inputs": [],
      "name": "educator",
      "outputs": [
        {
          "internalType": "address",
          "name": "",
          "type": "address"
        }
      ],
      "payable": false,
      "stateMutability": "view",
      "type": "function"
    },
    {
      "constant": true,
      "inputs": [],
      "name": "isEducator",
      "outputs": [
        {
          "internalType": "bool",
          "name": "",
          "type": "bool"
        }
      ],
      "payable": false,
      "stateMutability": "view",
      "type": "function"
    },
    {
      "constant": true,
      "inputs": [],
      "name": "isOwner",
      "outputs": [
        {
          "internalType": "bool",
          "name": "",
          "type": "bool"
        }
      ],
      "payable": false,
      "stateMutability": "view",
      "type": "function"
    },
    {
      "constant": true,
      "inputs": [],
      "name": "isStudent",
      "outputs": [
        {
          "internalType": "bool",
          "name": "",
          "type": "bool"
        }
      ],
      "payable": false,
      "stateMutability": "view",
      "type": "function"
    },
    {
      "constant": true,
      "inputs": [],
      "name": "isVerifier",
      "outputs": [
        {
          "internalType": "bool",
          "name": "",
          "type": "bool"
        }
      ],
      "payable": false,
      "stateMutability": "view",
      "type": "function"
    },
    {
      "constant": true,
      "inputs": [],
      "name": "owner",
      "outputs": [
        {
          "internalType": "address",
          "name": "",
          "type": "address"
        }
      ],
      "payable": false,
      "stateMutability": "view",
      "type": "function"
    },
    {
      "constant": true,
      "inputs": [],
      "name": "student",
      "outputs": [
        {
          "internalType": "address",
          "name": "",
          "type": "address"
        }
      ],
      "payable": false,
      "stateMutability": "view",
      "type": "function"
    },
    {
      "constant": true,
      "inputs": [],
      "name": "value",
      "outputs": [
        {
          "internalType": "uint256",
          "name": "",
          "type": "uint256"
        }
      ],
      "payable": false,
      "stateMutability": "view",
      "type": "function"
    },
    {
      "constant": true,
      "inputs": [],
      "name": "verifier",
      "outputs": [
        {
          "internalType": "address",
          "name": "",
          "type": "address"
        }
      ],
      "payable": false,
      "stateMutability": "view",
      "type": "function"
    },
    {
      "constant": false,
      "inputs": [
        {
          "internalType": "bytes32",
          "name": "_documentHash",
          "type": "bytes32"
        }
      ],
      "name": "storeHash",
      "outputs": [],
      "payable": false,
      "stateMutability": "nonpayable",
      "type": "function"
    },
    {
      "constant": true,
      "inputs": [
        {
          "internalType": "bytes32",
          "name": "_hash",
          "type": "bytes32"
        }
      ],
      "name": "readHashedCertificate",
      "outputs": [
        {
          "internalType": "bytes32",
          "name": "",
          "type": "bytes32"
        },
        {
          "internalType": "address",
          "name": "",
          "type": "address"
        },
        {
          "internalType": "uint256",
          "name": "",
          "type": "uint256"
        },
        {
          "internalType": "bool",
          "name": "",
          "type": "bool"
        }
      ],
      "payable": false,
      "stateMutability": "view",
      "type": "function"
    },
    {
      "constant": true,
      "inputs": [
        {
          "internalType": "bytes32",
          "name": "_documentHash",
          "type": "bytes32"
        }
      ],
      "name": "verifyCertificate",
      "outputs": [
        {
          "internalType": "bool",
          "name": "",
          "type": "bool"
        }
      ],
      "payable": false,
      "stateMutability": "view",
      "type": "function"
    }
  ],
  "bytecode": "0x6080604052336000806101000a81548173ffffffffffffffffffffffffffffffffffffffff021916908373ffffffffffffffffffffffffffffffffffffffff1602179055506109d4806100536000396000f3fe608060405234801561001057600080fd5b50600436106100b45760003560e01c80637efc818c116100715780637efc818c146101f95780637fe888851461021b578063831b097914610249578063850c1768146102d05780638da5cb5b146103165780638f32d59b14610360576100b4565b806329fbeb3e146100b95780632b7ac3f3146100db5780633fa4f2451461012557806351e0a6eb14610143578063699450e8146101655780637e461584146101af575b600080fd5b6100c1610382565b604051808215151515815260200191505060405180910390f35b6100e36103d9565b604051808273ffffffffffffffffffffffffffffffffffffffff1673ffffffffffffffffffffffffffffffffffffffff16815260200191505060405180910390f35b61012d6103ff565b6040518082815260200191505060405180910390f35b61014b610405565b604051808215151515815260200191505060405180910390f35b61016d61045d565b604051808273ffffffffffffffffffffffffffffffffffffffff1673ffffffffffffffffffffffffffffffffffffffff16815260200191505060405180910390f35b6101b7610483565b604051808273ffffffffffffffffffffffffffffffffffffffff1673ffffffffffffffffffffffffffffffffffffffff16815260200191505060405180910390f35b6102016104a9565b604051808215151515815260200191505060405180910390f35b6102476004803603602081101561023157600080fd5b8101908080359060200190929190505050610501565b005b6102756004803603602081101561025f57600080fd5b8101908080359060200190929190505050610739565b604051808581526020018473ffffffffffffffffffffffffffffffffffffffff1673ffffffffffffffffffffffffffffffffffffffff1681526020018381526020018215151515815260200194505050505060405180910390f35b6102fc600480360360208110156102e657600080fd5b8101908080359060200190929190505050610848565b604051808215151515815260200191505060405180910390f35b61031e61087b565b604051808273ffffffffffffffffffffffffffffffffffffffff1673ffffffffffffffffffffffffffffffffffffffff16815260200191505060405180910390f35b6103686108a0565b604051808215151515815260200191505060405180910390f35b60008060009054906101000a900473ffffffffffffffffffffffffffffffffffffffff1673ffffffffffffffffffffffffffffffffffffffff163373ffffffffffffffffffffffffffffffffffffffff1614905090565b600360009054906101000a900473ffffffffffffffffffffffffffffffffffffffff1681565b60045481565b6000600260009054906101000a900473ffffffffffffffffffffffffffffffffffffffff1673ffffffffffffffffffffffffffffffffffffffff163373ffffffffffffffffffffffffffffffffffffffff1614905090565b600260009054906101000a900473ffffffffffffffffffffffffffffffffffffffff1681565b600160009054906101000a900473ffffffffffffffffffffffffffffffffffffffff1681565b6000600160009054906101000a900473ffffffffffffffffffffffffffffffffffffffff1673ffffffffffffffffffffffffffffffffffffffff163373ffffffffffffffffffffffffffffffffffffffff1614905090565b6105096108a0565b61057b576040517f08c379a000000000000000000000000000000000000000000000000000000000815260040180806020018281038252600d8152602001807f4163636573732044656e6965640000000000000000000000000000000000000081525060200191505060405180910390fd5b80806005600083815260200190815260200160002060010154146105ea576040517f08c379a000000000000000000000000000000000000000000000000000000000815260040180806020018281038252602b81526020018061093b602b913960400191505060405180910390fd5b602e602060ff16146105fb57600080fd5b6106036108f7565b60405180608001604052803373ffffffffffffffffffffffffffffffffffffffff168152602001848152602001428152602001600115158152509050806005600085815260200190815260200160002060008201518160000160006101000a81548173ffffffffffffffffffffffffffffffffffffffff021916908373ffffffffffffffffffffffffffffffffffffffff160217905550602082015181600101556040820151816002015560608201518160030160006101000a81548160ff0219169083151502179055509050503373ffffffffffffffffffffffffffffffffffffffff167f5aedb9a634ca6e6cb01b79ed4a10513917e5e19f4e5858217e102bfe13a271bd844260016040518084815260200183815260200182151515158152602001935050505060405180910390a2505050565b6000806000808480600560008381526020019081526020016000206001015414156107af576040517f08c379a000000000000000000000000000000000000000000000000000000000815260040180806020018281038252603a815260200180610966603a913960400191505060405180910390fd5b60056000878152602001908152602001600020600101546005600088815260200190815260200160002060000160009054906101000a900473ffffffffffffffffffffffffffffffffffffffff166005600089815260200190815260200160002060020154600560008a815260200190815260200160002060030160009054906101000a900460ff169450945094509450509193509193565b600081600560008481526020019081526020016000206001015414156108715760019050610876565b600090505b919050565b6000809054906101000a900473ffffffffffffffffffffffffffffffffffffffff1681565b60008060009054906101000a900473ffffffffffffffffffffffffffffffffffffffff1673ffffffffffffffffffffffffffffffffffffffff163373ffffffffffffffffffffffffffffffffffffffff1614905090565b6040518060800160405280600073ffffffffffffffffffffffffffffffffffffffff1681526020016000801916815260200160008152602001600015158152509056fe4572726f723a2074686973206861736820616c72656164792065786973747320696e20636f6e74726163744572726f723a2074686973206861736820646f6573206e6f7420657869737420616c72656164792065786973747320696e20636f6e7472616374a265627a7a72315820eec913c1abb85cfca9dbb2cfbd7326737190e270407c9e0f5f59e4fa15f5b64164736f6c63430005100032",
  "source": "pragma solidity >=0.4.22 <0.8.0;\n\nimport \"./Ownable.sol\";\n\ncontract CertificateRegistry is Ownable {\n    /**\n     * The Certificate Document info structure: every certificate info is composed of:\n     * - documentHash: Hash of the document generated off-chain\n     * - issuer: account of the institution that issue the document\n     * - timeOfIssue - time the document hash was stored.\n     */\n    struct DocumentInfo {\n        address issuer;\n        bytes32 documentHash;\n        uint256 timeOfIssue;\n        bool isStored;\n    }\n\n    /*\n      A mapping each student document to their ID\n      This mapping is used to keep track of every certification document initiated for every student by an educator.\n     */\n    mapping(bytes32 => DocumentInfo) private documentRegistry;\n\n    /**\n     * This event is triggered for store hash notification messages and outputs the following:\n     * - issuer - owner of the contract\n     * - documentHash\n     * - timeOfIssue\n     */\n    event HashAdded(\n        address indexed issuer,\n        bytes32 documentHash,\n        uint256 _timeOfIssue,\n        bool isStored\n    );\n\n    modifier noHashExistsYet(bytes32 _docHash) {\n        require(\n            documentRegistry[_docHash].documentHash == _docHash,\n            \"Error: this hash already exists in contract\"\n        );\n        _;\n    }\n    modifier doesHashExist(bytes32 _docHash) {\n        require(\n            documentRegistry[_docHash].documentHash != _docHash,\n            \"Error: this hash does not exist already exists in contract\"\n        );\n        _;\n    }\n\n    /*\n     * Record a new hash request on behalf of a student\n     * The sender of message call is the educator itself\n     * @param {string} _document Hash of the sutuednt submitted for storage on-chain\n     */\n    function storeHash(bytes32 _documentHash)\n        public\n        onlyOwner\n        noHashExistsYet(_documentHash)\n    {\n        require(_documentHash.length == 46);\n        DocumentInfo memory docInfo = DocumentInfo({\n            documentHash: _documentHash,\n            issuer: msg.sender,\n            timeOfIssue: block.timestamp,\n            isStored: true\n        });\n\n        documentRegistry[_documentHash] = docInfo;\n\n        // creates the event, to be used to query all the certificates\n        emit HashAdded(msg.sender, _documentHash, block.timestamp, true);\n    }\n\n    function readHashedCertificate(bytes32 _hash)\n        public\n        view\n        doesHashExist(_hash)\n        returns (\n            bytes32,\n            address,\n            uint256,\n            bool\n        )\n    {\n        return (\n            documentRegistry[_hash].documentHash,\n            documentRegistry[_hash].issuer,\n            documentRegistry[_hash].timeOfIssue,\n            documentRegistry[_hash].isStored\n        );\n    }\n\n    function verifyCertificate(bytes32 _documentHash)\n        external\n        view\n        returns (bool)\n    {\n        // if hash are same or not\n        if (documentRegistry[_documentHash].documentHash == _documentHash) {\n            return true;\n        }\n        return false;\n    }\n}\n",
  "sourcePath": "/home/engrsunday/workspace/E-Cert-Dapp/contracts/CertificateRegistry.sol",
  "compiler": {
    "name": "solc",
    "version": "0.5.16+commit.9c3226ce.Emscripten.clang"
  },
  "schemaVersion": "3.3.1",
  "updatedAt": "2020-12-01T15:50:32.124Z",
  "devdoc": {
    "methods": {}
  },
  "userdoc": {
    "methods": {}
  }
}