{
  "contractName": "CertificateRegistry",
  "abi": [
    {
      "anonymous": false,
      "inputs": [
        {
          "indexed": true,
          "internalType": "address",
          "name": "issuer",
          "type": "address"
        },
        {
          "indexed": false,
          "internalType": "string",
          "name": "documentHash",
          "type": "string"
        },
        {
          "indexed": false,
          "internalType": "uint256",
          "name": "_timeOfIssue",
          "type": "uint256"
        },
        {
          "indexed": false,
          "internalType": "bool",
          "name": "isStored",
          "type": "bool"
        }
      ],
      "name": "HashAdded",
      "type": "event"
    },
    {
      "anonymous": false,
      "inputs": [
        {
          "indexed": true,
          "internalType": "address",
          "name": "oldOwner",
          "type": "address"
        },
        {
          "indexed": true,
          "internalType": "address",
          "name": "newOwner",
          "type": "address"
        }
      ],
      "name": "OwnerSet",
      "type": "event"
    },
    {
      "anonymous": false,
      "inputs": [
        {
          "indexed": true,
          "internalType": "address",
          "name": "previousOwner",
          "type": "address"
        },
        {
          "indexed": true,
          "internalType": "address",
          "name": "newOwner",
          "type": "address"
        }
      ],
      "name": "OwnershipTransferred",
      "type": "event"
    },
    {
      "constant": true,
      "inputs": [],
      "name": "educator",
      "outputs": [
        {
          "internalType": "address",
          "name": "",
          "type": "address"
        }
      ],
      "payable": false,
      "stateMutability": "view",
      "type": "function"
    },
    {
      "constant": true,
      "inputs": [],
      "name": "isEducator",
      "outputs": [
        {
          "internalType": "bool",
          "name": "",
          "type": "bool"
        }
      ],
      "payable": false,
      "stateMutability": "view",
      "type": "function"
    },
    {
      "constant": true,
      "inputs": [],
      "name": "isOwner",
      "outputs": [
        {
          "internalType": "bool",
          "name": "",
          "type": "bool"
        }
      ],
      "payable": false,
      "stateMutability": "view",
      "type": "function"
    },
    {
      "constant": true,
      "inputs": [],
      "name": "isStudent",
      "outputs": [
        {
          "internalType": "bool",
          "name": "",
          "type": "bool"
        }
      ],
      "payable": false,
      "stateMutability": "view",
      "type": "function"
    },
    {
      "constant": true,
      "inputs": [],
      "name": "isVerifier",
      "outputs": [
        {
          "internalType": "bool",
          "name": "",
          "type": "bool"
        }
      ],
      "payable": false,
      "stateMutability": "view",
      "type": "function"
    },
    {
      "constant": true,
      "inputs": [],
      "name": "owner",
      "outputs": [
        {
          "internalType": "address",
          "name": "",
          "type": "address"
        }
      ],
      "payable": false,
      "stateMutability": "view",
      "type": "function"
    },
    {
      "constant": true,
      "inputs": [],
      "name": "student",
      "outputs": [
        {
          "internalType": "address",
          "name": "",
          "type": "address"
        }
      ],
      "payable": false,
      "stateMutability": "view",
      "type": "function"
    },
    {
      "constant": false,
      "inputs": [
        {
          "internalType": "address",
          "name": "newOwner",
          "type": "address"
        }
      ],
      "name": "transferOwnership",
      "outputs": [],
      "payable": false,
      "stateMutability": "nonpayable",
      "type": "function"
    },
    {
      "constant": true,
      "inputs": [],
      "name": "value",
      "outputs": [
        {
          "internalType": "uint256",
          "name": "",
          "type": "uint256"
        }
      ],
      "payable": false,
      "stateMutability": "view",
      "type": "function"
    },
    {
      "constant": true,
      "inputs": [],
      "name": "verifier",
      "outputs": [
        {
          "internalType": "address",
          "name": "",
          "type": "address"
        }
      ],
      "payable": false,
      "stateMutability": "view",
      "type": "function"
    },
    {
      "constant": false,
      "inputs": [
        {
          "internalType": "string",
          "name": "_documentHash",
          "type": "string"
        }
      ],
      "name": "storeHash",
      "outputs": [],
      "payable": false,
      "stateMutability": "nonpayable",
      "type": "function"
    },
    {
      "constant": true,
      "inputs": [
        {
          "internalType": "string",
          "name": "_documenteHash",
          "type": "string"
        }
      ],
      "name": "verifyCertificate",
      "outputs": [
        {
          "internalType": "bool",
          "name": "",
          "type": "bool"
        }
      ],
      "payable": false,
      "stateMutability": "view",
      "type": "function"
    },
    {
      "constant": true,
      "inputs": [
        {
          "internalType": "string",
          "name": "_hash",
          "type": "string"
        }
      ],
      "name": "getCertificateInfo",
      "outputs": [
        {
          "internalType": "string",
          "name": "",
          "type": "string"
        },
        {
          "internalType": "address",
          "name": "",
          "type": "address"
        },
        {
          "internalType": "uint256",
          "name": "",
          "type": "uint256"
        },
        {
          "internalType": "bool",
          "name": "",
          "type": "bool"
        }
      ],
      "payable": false,
      "stateMutability": "view",
      "type": "function"
    }
  ],
  "bytecode": "0x6080604052336000806101000a81548173ffffffffffffffffffffffffffffffffffffffff021916908373ffffffffffffffffffffffffffffffffffffffff1602179055506000809054906101000a900473ffffffffffffffffffffffffffffffffffffffff1673ffffffffffffffffffffffffffffffffffffffff16600073ffffffffffffffffffffffffffffffffffffffff167f342827c97908e5e2f71151c08502a66d44b6f758e3ac2f1de95f02eb95f0a73560405160405180910390a36111fd806100cf6000396000f3fe608060405234801561001057600080fd5b50600436106100cf5760003560e01c806371dc61cb1161008c5780638b23d875116100665780638b23d8751461046a5780638da5cb5b1461053d5780638f32d59b14610587578063f2fde38b146105a9576100cf565b806371dc61cb146103435780637e461584146103fe5780637efc818c14610448576100cf565b806329fbeb3e146100d45780632b7ac3f3146100f65780633fa4f24514610140578063507dce191461015e57806351e0a6eb146102d7578063699450e8146102f9575b600080fd5b6100dc6105ed565b604051808215151515815260200191505060405180910390f35b6100fe610644565b604051808273ffffffffffffffffffffffffffffffffffffffff1673ffffffffffffffffffffffffffffffffffffffff16815260200191505060405180910390f35b61014861066a565b6040518082815260200191505060405180910390f35b6102176004803603602081101561017457600080fd5b810190808035906020019064010000000081111561019157600080fd5b8201836020820111156101a357600080fd5b803590602001918460018302840111640100000000831117156101c557600080fd5b91908080601f016020809104026020016040519081016040528093929190818152602001838380828437600081840152601f19601f820116905080830192505050505050509192919290505050610670565b60405180806020018573ffffffffffffffffffffffffffffffffffffffff1673ffffffffffffffffffffffffffffffffffffffff16815260200184815260200183151515158152602001828103825286818151815260200191508051906020019080838360005b8381101561029957808201518184015260208101905061027e565b50505050905090810190601f1680156102c65780820380516001836020036101000a031916815260200191505b509550505050505060405180910390f35b6102df6109da565b604051808215151515815260200191505060405180910390f35b610301610a32565b604051808273ffffffffffffffffffffffffffffffffffffffff1673ffffffffffffffffffffffffffffffffffffffff16815260200191505060405180910390f35b6103fc6004803603602081101561035957600080fd5b810190808035906020019064010000000081111561037657600080fd5b82018360208201111561038857600080fd5b803590602001918460018302840111640100000000831117156103aa57600080fd5b91908080601f016020809104026020016040519081016040528093929190818152602001838380828437600081840152601f19601f820116905080830192505050505050509192919290505050610a58565b005b610406610cc3565b604051808273ffffffffffffffffffffffffffffffffffffffff1673ffffffffffffffffffffffffffffffffffffffff16815260200191505060405180910390f35b610450610ce9565b604051808215151515815260200191505060405180910390f35b6105236004803603602081101561048057600080fd5b810190808035906020019064010000000081111561049d57600080fd5b8201836020820111156104af57600080fd5b803590602001918460018302840111640100000000831117156104d157600080fd5b91908080601f016020809104026020016040519081016040528093929190818152602001838380828437600081840152601f19601f820116905080830192505050505050509192919290505050610d41565b604051808215151515815260200191505060405180910390f35b610545610dd6565b604051808273ffffffffffffffffffffffffffffffffffffffff1673ffffffffffffffffffffffffffffffffffffffff16815260200191505060405180910390f35b61058f610dfb565b604051808215151515815260200191505060405180910390f35b6105eb600480360360208110156105bf57600080fd5b81019080803573ffffffffffffffffffffffffffffffffffffffff169060200190929190505050610e52565b005b60008060009054906101000a900473ffffffffffffffffffffffffffffffffffffffff1673ffffffffffffffffffffffffffffffffffffffff163373ffffffffffffffffffffffffffffffffffffffff1614905090565b600360009054906101000a900473ffffffffffffffffffffffffffffffffffffffff1681565b60045481565b6060600080600084600115156005826040518082805190602001908083835b602083106106b2578051825260208201915060208101905060208303925061068f565b6001836020036101000a038019825116818451168082178552505050505050905001915050908152602001604051809103902060030160009054906101000a900460ff1615151461074e576040517f08c379a000000000000000000000000000000000000000000000000000000000815260040180806020018281038252602b81526020018061119e602b913960400191505060405180910390fd5b6005866040518082805190602001908083835b602083106107845780518252602082019150602081019050602083039250610761565b6001836020036101000a03801982511681845116808217855250505050505090500191505090815260200160405180910390206001016005876040518082805190602001908083835b602083106107f057805182526020820191506020810190506020830392506107cd565b6001836020036101000a038019825116818451168082178552505050505050905001915050908152602001604051809103902060000160009054906101000a900473ffffffffffffffffffffffffffffffffffffffff166005886040518082805190602001908083835b6020831061087d578051825260208201915060208101905060208303925061085a565b6001836020036101000a0380198251168184511680821785525050505050509050019150509081526020016040518091039020600201546005896040518082805190602001908083835b602083106108ea57805182526020820191506020810190506020830392506108c7565b6001836020036101000a038019825116818451168082178552505050505050905001915050908152602001604051809103902060030160009054906101000a900460ff16838054600181600116156101000203166002900480601f0160208091040260200160405190810160405280929190818152602001828054600181600116156101000203166002900480156109c35780601f10610998576101008083540402835291602001916109c3565b820191906000526020600020905b8154815290600101906020018083116109a657829003601f168201915b505050505093509450945094509450509193509193565b6000600260009054906101000a900473ffffffffffffffffffffffffffffffffffffffff1673ffffffffffffffffffffffffffffffffffffffff163373ffffffffffffffffffffffffffffffffffffffff1614905090565b600260009054906101000a900473ffffffffffffffffffffffffffffffffffffffff1681565b80610a6281610fc4565b610ab7576040517f08c379a000000000000000000000000000000000000000000000000000000000815260040180806020018281038252602b815260200180611173602b913960400191505060405180910390fd5b610abf61108d565b60405180608001604052803373ffffffffffffffffffffffffffffffffffffffff168152602001848152602001438152602001600115158152509050806005846040518082805190602001908083835b60208310610b325780518252602082019150602081019050602083039250610b0f565b6001836020036101000a038019825116818451168082178552505050505050905001915050908152602001604051809103902060008201518160000160006101000a81548173ffffffffffffffffffffffffffffffffffffffff021916908373ffffffffffffffffffffffffffffffffffffffff1602179055506020820151816001019080519060200190610bc89291906110cd565b506040820151816002015560608201518160030160006101000a81548160ff0219169083151502179055509050503373ffffffffffffffffffffffffffffffffffffffff167f7dd994fa9904608f0c6f9b5f26816e6ac29af76e80f3dc57b8c1c6660cc3f93184436001604051808060200184815260200183151515158152602001828103825285818151815260200191508051906020019080838360005b83811015610c82578082015181840152602081019050610c67565b50505050905090810190601f168015610caf5780820380516001836020036101000a031916815260200191505b5094505050505060405180910390a2505050565b600160009054906101000a900473ffffffffffffffffffffffffffffffffffffffff1681565b6000600160009054906101000a900473ffffffffffffffffffffffffffffffffffffffff1673ffffffffffffffffffffffffffffffffffffffff163373ffffffffffffffffffffffffffffffffffffffff1614905090565b600080610db96005846040518082805190602001908083835b60208310610d7d5780518252602082019150602081019050602083039250610d5a565b6001836020036101000a03801982511681845116808217855250505050505090500191505090815260200160405180910390206001018461104d565b90508015610dcb576001915050610dd1565b60009150505b919050565b6000809054906101000a900473ffffffffffffffffffffffffffffffffffffffff1681565b60008060009054906101000a900473ffffffffffffffffffffffffffffffffffffffff1673ffffffffffffffffffffffffffffffffffffffff163373ffffffffffffffffffffffffffffffffffffffff1614905090565b610e5a610dfb565b610ecc576040517f08c379a000000000000000000000000000000000000000000000000000000000815260040180806020018281038252600d8152602001807f4163636573732044656e6965640000000000000000000000000000000000000081525060200191505060405180910390fd5b600073ffffffffffffffffffffffffffffffffffffffff168173ffffffffffffffffffffffffffffffffffffffff161415610f0657600080fd5b8073ffffffffffffffffffffffffffffffffffffffff166000809054906101000a900473ffffffffffffffffffffffffffffffffffffffff1673ffffffffffffffffffffffffffffffffffffffff167f8be0079c531659141344cd1fd0a4f28419497f9722a3daafe3b4186f6b6457e060405160405180910390a3806000806101000a81548173ffffffffffffffffffffffffffffffffffffffff021916908373ffffffffffffffffffffffffffffffffffffffff16021790555050565b60008015156005836040518082805190602001908083835b60208310610fff5780518252602082019150602081019050602083039250610fdc565b6001836020036101000a038019825116818451168082178552505050505050905001915050908152602001604051809103902060030160009054906101000a900460ff161515149050919050565b60008083905060608390508051828054600181600116156101000203166002900490501461108057600092505050611087565b6001925050505b92915050565b6040518060800160405280600073ffffffffffffffffffffffffffffffffffffffff16815260200160608152602001600081526020016000151581525090565b828054600181600116156101000203166002900490600052602060002090601f016020900481019282601f1061110e57805160ff191683800117855561113c565b8280016001018555821561113c579182015b8281111561113b578251825591602001919060010190611120565b5b509050611149919061114d565b5090565b61116f91905b8082111561116b576000816000905550600101611153565b5090565b9056fe4572726f723a2074686973206861736820616c72656164792065786973747320696e20636f6e74726163744572726f723a2074686973206861736820646f6573206e6f7420657869737420696e20636f6e7472616374a265627a7a72315820e9dc8dacace7f2a7523de432dd45358e3c0a1ef9454da5d19e98c7ecfa1b844464736f6c63430005100032",
  "source": "pragma solidity >=0.4.22 <0.8.0;\n\nimport \"./Ownable.sol\";\n\ncontract CertificateRegistry is Ownable {\n    /**\n     * The Certificate Document info structure: every certificate info is composed of:\n     * - documentHash: Hash of the document generated off-chain\n     * - issuer: account of the institution that issue the document\n     * - timeOfIssue - time the document hash was stored.\n     */\n    struct DocumentInfo {\n        address issuer;\n        string documentHash;\n        uint256 timeOfIssue;\n        bool isStored;\n    }\n\n    /*\n      A mapping of the hash value to each student documentInfo\n      This mapping is used to keep track of every certification document initiated for every student by an educator.\n     */\n    mapping(string => DocumentInfo) private documentRegistry;\n\n    // event for EVM logging\n    event HashAdded(\n        address indexed issuer,\n        string documentHash,\n        uint256 _timeOfIssue,\n        bool isStored\n    );\n\n    modifier noHashExistsYet(string memory _docHash) {\n        require(\n            isHashStored(_docHash),\n            \"Error: this hash already exists in contract\"\n        );\n        _;\n    }\n    modifier doesHashExist(string memory _docHash) {\n        require(\n            documentRegistry[_docHash].isStored == true,\n            \"Error: this hash does not exist in contract\"\n        );\n        _;\n    }\n\n    /*\n     * Record a new hash request on behalf of a student\n     * The sender of message call is the educator itself\n     * @param {string} _document Hash of the sutuednt submitted for storage on-chain\n     */\n    function storeHash(string memory _documentHash)\n        public\n        noHashExistsYet(_documentHash)\n    {\n        DocumentInfo memory docInfo = DocumentInfo({\n            documentHash: _documentHash,\n            issuer: msg.sender,\n            timeOfIssue: block.number,\n            isStored: true\n        });\n\n        documentRegistry[_documentHash] = docInfo;\n\n        // creates the event, to be used to query all the store hash of the certificates\n        emit HashAdded(msg.sender, _documentHash, block.number, true);\n    }\n\n    function verifyCertificate(string memory _documenteHash)\n        public\n        view\n        returns (bool)\n    {\n        bool test = stringsEqual(\n            documentRegistry[_documenteHash].documentHash,\n            _documenteHash\n        );\n        if (test) {\n            return true;\n        }\n        return false;\n    }\n\n    function getCertificateInfo(string memory _hash)\n        public\n        view\n        doesHashExist(_hash)\n        returns (\n            string memory,\n            address,\n            uint256,\n            bool\n        )\n    {\n        return (\n            documentRegistry[_hash].documentHash,\n            documentRegistry[_hash].issuer,\n            documentRegistry[_hash].timeOfIssue,\n            documentRegistry[_hash].isStored\n        );\n    }\n\n    function isHashStored(string memory _documentHash)\n        internal\n        view\n        returns (bool)\n    {\n        return documentRegistry[_documentHash].isStored == false;\n    }\n\n    function stringsEqual(string storage _a, string memory _b)\n        internal\n        view\n        returns (bool)\n    {\n        bytes storage a = bytes(_a);\n        bytes memory b = bytes(_b);\n        if (a.length != b.length) {\n            return false;\n        }\n        return true;\n    }\n}\n",
  "sourcePath": "/home/engrsunday/workspace/E-Cert-Dapp/contracts/CertificateRegistry.sol",
  "compiler": {
    "name": "solc",
    "version": "0.5.16+commit.9c3226ce.Emscripten.clang"
  },
  "schemaVersion": "3.3.1",
  "updatedAt": "2020-12-02T11:40:11.439Z",
  "devdoc": {
    "methods": {}
  },
  "userdoc": {
    "methods": {}
  }
}