{
  "contractName": "CertificateRegistry",
  "abi": [
    {
      "anonymous": false,
      "inputs": [
        {
          "indexed": true,
          "internalType": "address",
          "name": "issuer",
          "type": "address"
        },
        {
          "indexed": false,
          "internalType": "string",
          "name": "documentHash",
          "type": "string"
        },
        {
          "indexed": false,
          "internalType": "uint256",
          "name": "timeOfIssue",
          "type": "uint256"
        },
        {
          "indexed": false,
          "internalType": "bool",
          "name": "isStored",
          "type": "bool"
        }
      ],
      "name": "LogNewHashStored",
      "type": "event"
    },
    {
      "anonymous": false,
      "inputs": [
        {
          "indexed": true,
          "internalType": "address",
          "name": "oldOwner",
          "type": "address"
        },
        {
          "indexed": true,
          "internalType": "address",
          "name": "newOwner",
          "type": "address"
        }
      ],
      "name": "OwnerSet",
      "type": "event"
    },
    {
      "anonymous": false,
      "inputs": [
        {
          "indexed": true,
          "internalType": "address",
          "name": "previousOwner",
          "type": "address"
        },
        {
          "indexed": true,
          "internalType": "address",
          "name": "newOwner",
          "type": "address"
        }
      ],
      "name": "OwnershipTransferred",
      "type": "event"
    },
    {
      "constant": true,
      "inputs": [],
      "name": "contractOwner",
      "outputs": [
        {
          "internalType": "address",
          "name": "",
          "type": "address"
        }
      ],
      "payable": false,
      "stateMutability": "view",
      "type": "function"
    },
    {
      "constant": true,
      "inputs": [
        {
          "internalType": "string",
          "name": "",
          "type": "string"
        }
      ],
      "name": "documentRegistry",
      "outputs": [
        {
          "internalType": "address",
          "name": "issuer",
          "type": "address"
        },
        {
          "internalType": "string",
          "name": "documentHash",
          "type": "string"
        },
        {
          "internalType": "uint256",
          "name": "timeOfIssue",
          "type": "uint256"
        },
        {
          "internalType": "bool",
          "name": "isStored",
          "type": "bool"
        }
      ],
      "payable": false,
      "stateMutability": "view",
      "type": "function"
    },
    {
      "constant": true,
      "inputs": [],
      "name": "isOwner",
      "outputs": [
        {
          "internalType": "bool",
          "name": "",
          "type": "bool"
        }
      ],
      "payable": false,
      "stateMutability": "view",
      "type": "function"
    },
    {
      "constant": true,
      "inputs": [],
      "name": "isStudent",
      "outputs": [
        {
          "internalType": "bool",
          "name": "",
          "type": "bool"
        }
      ],
      "payable": false,
      "stateMutability": "view",
      "type": "function"
    },
    {
      "constant": true,
      "inputs": [],
      "name": "isVerifier",
      "outputs": [
        {
          "internalType": "bool",
          "name": "",
          "type": "bool"
        }
      ],
      "payable": false,
      "stateMutability": "view",
      "type": "function"
    },
    {
      "constant": true,
      "inputs": [],
      "name": "student",
      "outputs": [
        {
          "internalType": "address",
          "name": "",
          "type": "address"
        }
      ],
      "payable": false,
      "stateMutability": "view",
      "type": "function"
    },
    {
      "constant": false,
      "inputs": [
        {
          "internalType": "address",
          "name": "newOwner",
          "type": "address"
        }
      ],
      "name": "transferOwnership",
      "outputs": [],
      "payable": false,
      "stateMutability": "nonpayable",
      "type": "function"
    },
    {
      "constant": true,
      "inputs": [],
      "name": "value",
      "outputs": [
        {
          "internalType": "uint256",
          "name": "",
          "type": "uint256"
        }
      ],
      "payable": false,
      "stateMutability": "view",
      "type": "function"
    },
    {
      "constant": true,
      "inputs": [],
      "name": "verifier",
      "outputs": [
        {
          "internalType": "address",
          "name": "",
          "type": "address"
        }
      ],
      "payable": false,
      "stateMutability": "view",
      "type": "function"
    },
    {
      "constant": false,
      "inputs": [
        {
          "internalType": "string",
          "name": "_documentHash",
          "type": "string"
        }
      ],
      "name": "storeHash",
      "outputs": [],
      "payable": false,
      "stateMutability": "nonpayable",
      "type": "function"
    },
    {
      "constant": true,
      "inputs": [
        {
          "internalType": "string",
          "name": "_documenteHash",
          "type": "string"
        }
      ],
      "name": "verifyCertificate",
      "outputs": [
        {
          "internalType": "bool",
          "name": "",
          "type": "bool"
        }
      ],
      "payable": false,
      "stateMutability": "view",
      "type": "function"
    }
  ],
  "bytecode": "0x6080604052336000806101000a81548173ffffffffffffffffffffffffffffffffffffffff021916908373ffffffffffffffffffffffffffffffffffffffff1602179055506000809054906101000a900473ffffffffffffffffffffffffffffffffffffffff1673ffffffffffffffffffffffffffffffffffffffff16600073ffffffffffffffffffffffffffffffffffffffff167f342827c97908e5e2f71151c08502a66d44b6f758e3ac2f1de95f02eb95f0a73560405160405180910390a361107e806100cf6000396000f3fe608060405234801561001057600080fd5b50600436106100a95760003560e01c80637efc818c116100715780637efc818c1461023d5780638b23d8751461025f5780638f32d59b146103325780639290095314610354578063ce606ee0146104cd578063f2fde38b14610517576100a9565b80632b7ac3f3146100ae5780633fa4f245146100f857806351e0a6eb14610116578063699450e81461013857806371dc61cb14610182575b600080fd5b6100b661055b565b604051808273ffffffffffffffffffffffffffffffffffffffff1673ffffffffffffffffffffffffffffffffffffffff16815260200191505060405180910390f35b610100610581565b6040518082815260200191505060405180910390f35b61011e610587565b604051808215151515815260200191505060405180910390f35b6101406105df565b604051808273ffffffffffffffffffffffffffffffffffffffff1673ffffffffffffffffffffffffffffffffffffffff16815260200191505060405180910390f35b61023b6004803603602081101561019857600080fd5b81019080803590602001906401000000008111156101b557600080fd5b8201836020820111156101c757600080fd5b803590602001918460018302840111640100000000831117156101e957600080fd5b91908080601f016020809104026020016040519081016040528093929190818152602001838380828437600081840152601f19601f820116905080830192505050505050509192919290505050610605565b005b6102456109cd565b604051808215151515815260200191505060405180910390f35b6103186004803603602081101561027557600080fd5b810190808035906020019064010000000081111561029257600080fd5b8201836020820111156102a457600080fd5b803590602001918460018302840111640100000000831117156102c657600080fd5b91908080601f016020809104026020016040519081016040528093929190818152602001838380828437600081840152601f19601f820116905080830192505050505050509192919290505050610a25565b604051808215151515815260200191505060405180910390f35b61033a610b17565b604051808215151515815260200191505060405180910390f35b61040d6004803603602081101561036a57600080fd5b810190808035906020019064010000000081111561038757600080fd5b82018360208201111561039957600080fd5b803590602001918460018302840111640100000000831117156103bb57600080fd5b91908080601f016020809104026020016040519081016040528093929190818152602001838380828437600081840152601f19601f820116905080830192505050505050509192919290505050610b6e565b604051808573ffffffffffffffffffffffffffffffffffffffff1673ffffffffffffffffffffffffffffffffffffffff1681526020018060200184815260200183151515158152602001828103825285818151815260200191508051906020019080838360005b8381101561048f578082015181840152602081019050610474565b50505050905090810190601f1680156104bc5780820380516001836020036101000a031916815260200191505b509550505050505060405180910390f35b6104d5610c79565b604051808273ffffffffffffffffffffffffffffffffffffffff1673ffffffffffffffffffffffffffffffffffffffff16815260200191505060405180910390f35b6105596004803603602081101561052d57600080fd5b81019080803573ffffffffffffffffffffffffffffffffffffffff169060200190929190505050610c9e565b005b600260009054906101000a900473ffffffffffffffffffffffffffffffffffffffff1681565b60035481565b6000600160009054906101000a900473ffffffffffffffffffffffffffffffffffffffff1673ffffffffffffffffffffffffffffffffffffffff163373ffffffffffffffffffffffffffffffffffffffff1614905090565b600160009054906101000a900473ffffffffffffffffffffffffffffffffffffffff1681565b61060d610b17565b61067f576040517f08c379a000000000000000000000000000000000000000000000000000000000815260040180806020018281038252600d8152602001807f4163636573732044656e6965640000000000000000000000000000000000000081525060200191505060405180910390fd5b8060008151116106da576040517f08c379a000000000000000000000000000000000000000000000000000000000815260040180806020018281038252602c815260200180610fc0602c913960400191505060405180910390fd5b816106e481610e10565b1561073a576040517f08c379a000000000000000000000000000000000000000000000000000000000815260040180806020018281038252603a815260200180610fec603a913960400191505060405180910390fd5b600073ffffffffffffffffffffffffffffffffffffffff163373ffffffffffffffffffffffffffffffffffffffff1614156107c0576040517f08c379a00000000000000000000000000000000000000000000000000000000081526004018080602001828103825260248152602001806110266024913960400191505060405180910390fd5b6107c8610eda565b60405180608001604052803373ffffffffffffffffffffffffffffffffffffffff168152602001858152602001428152602001600115158152509050806004856040518082805190602001908083835b6020831061083b5780518252602082019150602081019050602083039250610818565b6001836020036101000a038019825116818451168082178552505050505050905001915050908152602001604051809103902060008201518160000160006101000a81548173ffffffffffffffffffffffffffffffffffffffff021916908373ffffffffffffffffffffffffffffffffffffffff16021790555060208201518160010190805190602001906108d1929190610f1a565b506040820151816002015560608201518160030160006101000a81548160ff0219169083151502179055509050503373ffffffffffffffffffffffffffffffffffffffff167f6b85cf5e437037065cbb853ec169f7203fef06c8634088ea8b42cdf388bb42a785436001604051808060200184815260200183151515158152602001828103825285818151815260200191508051906020019080838360005b8381101561098b578082015181840152602081019050610970565b50505050905090810190601f1680156109b85780820380516001836020036101000a031916815260200191505b5094505050505060405180910390a250505050565b6000600260009054906101000a900473ffffffffffffffffffffffffffffffffffffffff1673ffffffffffffffffffffffffffffffffffffffff163373ffffffffffffffffffffffffffffffffffffffff1614905090565b6000816000815111610a82576040517f08c379a000000000000000000000000000000000000000000000000000000000815260040180806020018281038252602c815260200180610fc0602c913960400191505060405180910390fd5b6000610af96004856040518082805190602001908083835b60208310610abd5780518252602082019150602081019050602083039250610a9a565b6001836020036101000a038019825116818451168082178552505050505050905001915050908152602001604051809103902060010185610e9a565b90508015610b0b576001925050610b11565b60009250505b50919050565b60008060009054906101000a900473ffffffffffffffffffffffffffffffffffffffff1673ffffffffffffffffffffffffffffffffffffffff163373ffffffffffffffffffffffffffffffffffffffff1614905090565b6004818051602081018201805184825260208301602085012081835280955050505050506000915090508060000160009054906101000a900473ffffffffffffffffffffffffffffffffffffffff1690806001018054600181600116156101000203166002900480601f016020809104026020016040519081016040528092919081815260200182805460018160011615610100020316600290048015610c565780601f10610c2b57610100808354040283529160200191610c56565b820191906000526020600020905b815481529060010190602001808311610c3957829003601f168201915b5050505050908060020154908060030160009054906101000a900460ff16905084565b6000809054906101000a900473ffffffffffffffffffffffffffffffffffffffff1681565b610ca6610b17565b610d18576040517f08c379a000000000000000000000000000000000000000000000000000000000815260040180806020018281038252600d8152602001807f4163636573732044656e6965640000000000000000000000000000000000000081525060200191505060405180910390fd5b600073ffffffffffffffffffffffffffffffffffffffff168173ffffffffffffffffffffffffffffffffffffffff161415610d5257600080fd5b8073ffffffffffffffffffffffffffffffffffffffff166000809054906101000a900473ffffffffffffffffffffffffffffffffffffffff1673ffffffffffffffffffffffffffffffffffffffff167f8be0079c531659141344cd1fd0a4f28419497f9722a3daafe3b4186f6b6457e060405160405180910390a3806000806101000a81548173ffffffffffffffffffffffffffffffffffffffff021916908373ffffffffffffffffffffffffffffffffffffffff16021790555050565b6000600115156004836040518082805190602001908083835b60208310610e4c5780518252602082019150602081019050602083039250610e29565b6001836020036101000a038019825116818451168082178552505050505050905001915050908152602001604051809103902060030160009054906101000a900460ff161515149050919050565b600080839050606083905080518280546001816001161561010002031660029004905014610ecd57600092505050610ed4565b6001925050505b92915050565b6040518060800160405280600073ffffffffffffffffffffffffffffffffffffffff16815260200160608152602001600081526020016000151581525090565b828054600181600116156101000203166002900490600052602060002090601f016020900481019282601f10610f5b57805160ff1916838001178555610f89565b82800160010185558215610f89579182015b82811115610f88578251825591602001919060010190610f6d565b5b509050610f969190610f9a565b5090565b610fbc91905b80821115610fb8576000816000905550600101610fa0565b5090565b9056fe4572726f723a204572726f723a20686173682076616c75652073686f756c64206e6f7420626520656d7074794572726f723a204f6e6c792068617368657320746861742068617665206e6f74206265656e206861736865642063616e2062652073746f7265644572726f723a20656e73757265206564756361746f722061646472657373206578697374a265627a7a7231582067e8e5f28d8b5b2c5a46c089c6e2e2aa887b6d51b7ae9ab90aa9013a5333968464736f6c63430005100032",
  "source": "// SPDX-License-Identifier: Apache-2.0\r\n\r\npragma solidity >=0.4.22 <0.8.0;\r\n\r\nimport \"./zeppelin/ownership/Ownable.sol\";\r\n\r\ncontract CertificateRegistry is Ownable {\r\n    /**\r\n     * The Certificate Document info structure: every certificate info is composed of:\r\n     * - documentHash: Hash of the document generated off-chain\r\n     * - issuer: account of the institution that issue the document\r\n     * - timeOfIssue - time the document hash was stored.\r\n    * - isStored - a flag to show that a hash is stored or not.\r\n\r\n     */\r\n    struct DocumentInfo {\r\n        address issuer;\r\n        string documentHash;\r\n        uint256 timeOfIssue;\r\n        bool isStored;\r\n    }\r\n\r\n    /*\r\n      A mapping of the document hash to the documentinfo that was issued\r\n      This mapping is used to keep track of every certification document initiated for every student by an educator.\r\n     */\r\n    mapping(string => DocumentInfo) public documentRegistry;\r\n\r\n    // event for EVM logging\r\n    event LogNewHashStored(\r\n        address indexed issuer,\r\n        string documentHash,\r\n        uint256 timeOfIssue,\r\n        bool isStored\r\n    );\r\n\r\n    modifier onlyNotHashed(string memory _documentHash) {\r\n        require(\r\n            !isHashStored(_documentHash),\r\n            \"Error: Only hashes that have not been hashed can be stored\"\r\n        );\r\n        _;\r\n    }\r\n\r\n    modifier onlyHashValueNotEmpty(string memory _documentHash) {\r\n        require(\r\n            bytes(_documentHash).length > 0,\r\n            \"Error: Error: hash value should not be empty\"\r\n        );\r\n        _;\r\n    }\r\n\r\n    /*\r\n     * Record a new hash request on behalf of a student\r\n     * The sender of message call is the educator itself\r\n     * @param {string} _documentHash: Hash of the sutuednt submitted for storage on-chain\r\n     */\r\n    function storeHash(string memory _documentHash)\r\n        public\r\n        onlyOwner\r\n        onlyHashValueNotEmpty(_documentHash)\r\n        onlyNotHashed(_documentHash)\r\n    {\r\n        require(\r\n            msg.sender != address(0x0),\r\n            \"Error: ensure educator address exist\"\r\n        );\r\n        DocumentInfo memory docInfo = DocumentInfo({\r\n            documentHash: _documentHash,\r\n            issuer: msg.sender,\r\n            timeOfIssue: block.timestamp,\r\n            isStored: true\r\n        });\r\n\r\n        documentRegistry[_documentHash] = docInfo;\r\n\r\n        // creates the event, to be used to query all the store hash of the certificates\r\n        emit LogNewHashStored(msg.sender, _documentHash, block.number, true);\r\n    }\r\n\r\n    function verifyCertificate(string memory _documenteHash)\r\n        public\r\n        view\r\n        onlyHashValueNotEmpty(_documenteHash)\r\n        returns (bool)\r\n    {\r\n        bool test = stringsEqual(\r\n            documentRegistry[_documenteHash].documentHash,\r\n            _documenteHash\r\n        );\r\n        if (test) {\r\n            return true;\r\n        }\r\n        return false;\r\n    }\r\n\r\n    function isHashStored(string memory _documentHash)\r\n        internal\r\n        view\r\n        returns (bool)\r\n    {\r\n        return documentRegistry[_documentHash].isStored == true;\r\n    }\r\n\r\n    function stringsEqual(string storage _a, string memory _b)\r\n        internal\r\n        view\r\n        returns (bool)\r\n    {\r\n        bytes storage a = bytes(_a);\r\n        bytes memory b = bytes(_b);\r\n        if (a.length != b.length) {\r\n            return false;\r\n        }\r\n        return true;\r\n    }\r\n\r\n    // Note, swithc string to bytes32 to reduce gas cost if the file is hashed with institutionHash = keccak256(abi.encodePacked(block.number, now, msg.data));\r\n}\r\n",
  "sourcePath": "C:/Users/DAVID ODOH/Documents/Projects/Blockchain Projects/E-Cert-Dapp/contracts/CertificateRegistry.sol",
  "compiler": {
    "name": "solc",
    "version": "0.5.16+commit.9c3226ce.Emscripten.clang"
  },
  "schemaVersion": "3.3.2",
  "updatedAt": "2020-12-11T12:35:28.196Z",
  "networkType": "ethereum",
  "devdoc": {
    "methods": {}
  },
  "userdoc": {
    "methods": {}
  }
}